:100000000C9421010C9449010C9449010C94490170
:100010000C9449010C9449010C9449010C949205EB
:100020000C9449010C9449010C9449010C94490128
:100030000C9449010C9449010C9449010C94490118
:100040000C946C060C9449010C943A060C9414061A
:100050000C9449010C9449010C9449010C944901F8
:100060000C9449010C94490107634236B79BD8A709
:100070001A39685618AEBAAB558C1D3CB7CC5763CD
:10008000BD6DEDFD753EF6177231BF000000803F7B
:1000900008000000BE922449123EABAAAA2ABECD97
:1000A000CCCC4C3E00000080BEABAAAAAA3E000009
:1000B0000000BF000000803F000000000008417801
:1000C000D3BB4387D1133D190E3CC3BD4282AD2B38
:1000D0003E68EC8276BED98FE1A93E4C80EFFFBE30
:1000E00001C4FF7F3F000000000000407A10F35A77
:1000F00000A0724E18090010A5D4E80000E8764868
:10010000170000E40B54020000CA9A3B000000E113
:10011000F505000080969800000040420F000000A6
:10012000A08601000000102700000000E803000086
:1001300000006400000000000A0000000000010050
:10014000000000002C76D888DC674F0823DFC1DF71
:10015000AE59E1B1B796E5E3E453C63AE651997674
:1001600096E8E6C28426EB898C9B62ED407C6FFCAE
:10017000EFBC9C9F40F2BAA56FA5F490055A2AF7F0
:100180005C936B6CF9676DC11BFCE0E40D47FEF5F9
:1001900020E6B500D0ED902E030094357705008061
:1001A000841E080000204E0A000000C80C333333C0
:1001B000330F986E12831141EF8D2114893BE65560
:1001C00016CFFEE6DB18D1844B381BF77C1D901D43
:1001D000A4BBE424203284725E228100C9F124ECA5
:1001E000A1E53D2700000000240027002A000000B0
:1001F0000000230026002900000000080002010082
:1002000000030407000000000000000001020408D1
:100210001020408001020408102001020408102070
:1002200000000000250028002B000404040404043E
:100230000404020202020202030303030303020096
:100240009B0811241FBECFEFD8E0DEBFCDBF21E059
:10025000AEE3B1E001C01D92AB3FB207E1F711E0A0
:10026000A0E0B1E0E0E1F2E202C005900D92AE3311
:10027000B107D9F711E0C1E2D1E004C02197FE0136
:100280000E940E0FC032D107C9F70E94B6060C9427
:1002900006110C940000AF92BF92CF92DF92EF92C2
:1002A000FF920F931F93CF93DF936C017B018B0120
:1002B000040F151FEB015E01AE18BF08C017D10770
:1002C00059F06991D601ED91FC910190F081E02DFA
:1002D000C6010995892B79F7C501DF91CF911F914F
:1002E0000F91FF90EF90DF90CF90BF90AF90089567
:1002F000CF93DF93FC01448155816081718189E452
:1003000091E00E944B01EC0142E050E06DE171E0B0
:1003100089E491E00E944B018C0F9D1FDF91CF91EA
:100320000895FC01538D448D252F30E0842F90E0FB
:10033000821B930B541710F0CF96089501970895E0
:10034000FC01918D828D981761F0A28DAE0FBF2FA9
:10035000B11D5D968C91928D9F5F9F73928F90E0FF
:1003600008958FEF9FEF0895FC01918D828D98176E
:1003700031F0828DE80FF11D858D90E008958FEFAB
:100380009FEF0895FC01918D228D892F90E0805C74
:100390009F4F821B91098F739927089589E491E0FB
:1003A0000E94C20121E0892B09F420E0822F0895E8
:1003B00080E090E0892B29F00E94CE0181110C94FD
:1003C00000000895FC01A48DA80FB92FB11DA35AF8
:1003D000BF4F2C91848D90E001968F739927848F65
:1003E000A689B7892C93A089B1898C918370806488
:1003F0008C93938D848D981306C00288F389E02D29
:1004000080818F7D80830895EF92FF920F931F93D9
:10041000CF93DF93EC0181E0888F9B8D8C8D9813B7
:100420001AC0E889F989808185FF15C09FB7F894C3
:10043000EE89FF896083E889F9898081837080640F
:1004400080839FBF81E090E0DF91CF911F910F915A
:10045000FF90EF900895F62E0B8D10E00F5F1F4F69
:100460000F731127E02E8C8D8E110CC00FB607FC78
:10047000FACFE889F989808185FFF5CFCE010E9406
:10048000E201F1CFEB8DEC0FFD2FF11DE35AFF4F91
:10049000F0829FB7F8940B8FEA89FB898081806294
:1004A000CFCFCF93DF93EC01888D8823B9F0AA8951
:1004B000BB89E889F9898C9185FD03C0808186FD1F
:1004C0000DC00FB607FCF7CF8C9185FFF2CF80816E
:1004D00085FFEDCFCE010E94E201E9CFDF91CF9100
:1004E0000895833081F028F4813099F08230A9F0AA
:1004F00008958730A9F08830C9F08430B1F4809134
:1005000080008F7D03C0809180008F778093800072
:10051000089584B58F7784BD089584B58F7DFBCF12
:100520008091B0008F778093B00008958091B000E3
:100530008F7DF9CFCF93DF93EAEFF1E08491EEE086
:10054000F2E0D491ECE2F2E0C491CC23A1F081116D
:100550000E947102EC2FF0E0EE0FFF1FE251FE4F00
:10056000A591B491EC91ED2381E090E009F480E055
:10057000DF91CF91089580E090E0FACF1F93CF9361
:10058000DF93282F30E0F901E850FE4F8491F90104
:10059000E45FFD4FD491F901E65DFD4FC491CC239A
:1005A000A9F0162F81110E947102EC2FF0E0EE0FDE
:1005B000FF1FE05EFD4FA591B4918FB7F894EC91C9
:1005C000111108C0D095DE23DC938FBFDF91CF914E
:1005D0001F910895DE2BF8CFCF93DF9390E0FC01BD
:1005E000E45FFD4F2491865D9D4FFC01849188233B
:1005F000D1F090E0880F991FFC01EC51FE4FA591BE
:10060000B491FC01E05EFD4FC591D491623071F46C
:100610009FB7F8943C91822F809583238C93E88137
:100620002E2B28839FBFDF91CF9108958FB7F89429
:10063000EC912E2B2C938FBFF6CF4F925F926F923F
:100640007F928F929F92AF92BF92CF92DF92EF9262
:10065000FF920F931F93CF938C016A017B018091CE
:100660000401883099F08F3F09F453C0CF911F9156
:100670000F91FF90EF90DF90CF90BF90AF909F9041
:100680008F907F906F905F904F900895EEE3F2E02F
:10069000C491C7FDEBCF61E088E00E94EC02280125
:1006A000712C612CCC23F1F0980150E040E0C23075
:1006B00009F09EC028013A0164E274EF80E090E006
:1006C0000E94EF0E49015A0181E0881A9108A108A1
:1006D000B10895E08FEF88169104A104B10409F0E8
:1006E0000CF4DFC062E17AE780E090E0A3019201C0
:1006F0000E94EF0E49015A0181E0881A9108A10871
:10070000B10896E0C111CDC085B5887F846085BDF4
:1007100084C088E080930401EEE3F2E0C491CF3F0F
:1007200009F4A4CFC13021F150F0C23009F43EC029
:10073000C7FD9CCF61E088E00E94EC02B5CF14BCFD
:1007400015BC84B5826084BD85B5816085BDE2E35A
:10075000F2E0E491F0E0EE0FFF1FE05EFD4F8591C7
:100760009491E4E1F2E0E491E093EA01C0E093CFF8
:1007700010928000109281008091810088608093A7
:10078000810080918100816080938100E2E3F2E04A
:10079000E491F0E0EE0FFF1FE05EFD4F8591949134
:1007A000E4E1F2E0E491E093E90175CF1092B0004A
:1007B0001092B1008091B00082608093B00080916F
:1007C000B10081608093B100E2E3F2E0E491F0E0F7
:1007D000EE0FFF1FE05EFD4F859194919093E8012D
:1007E0008093E701E4E1F2E0E491E093E60153CF86
:1007F00060E072E18AE790E00E94EF0E49015A0141
:1008000081E0881A9108A108B108C13031F48091C3
:100810008100887F816080938100D801AA0FBB1F6F
:10082000A70196010E94180C28EE33E040E050E04A
:100830000E94CD0EC13099F0C23019F1C11116CF0E
:1008400087BC2093F3013093F4014093F50150935A
:10085000F60180916E00826080936E0007CF9092C7
:100860008900809288002093EF013093F00140933B
:10087000F1015093F20180916F00826080936F00CC
:10088000F5CE8092B3002093EB013093EC014093BE
:10089000ED015093EE0180917000826080937000B2
:1008A000E5CE8091B100887F892B8093B100B5CFD0
:1008B0003FB7F8948091430190914401A091450184
:1008C000B091460126B5A89B05C02F3F19F00196AF
:1008D000A11DB11D3FBFBA2FA92F982F8827BC019A
:1008E000CD01620F711D811D911D42E0660F771FC2
:1008F000881F991F4A95D1F708958F929F92AF92C2
:10090000BF92CF92DF92EF92FF926B017C010E9427
:1009100058044B015C01C114D104E104F104B9F0A5
:100920000E945804681979098A099B09683E734036
:100930008105910580F321E0C21AD108E108F10890
:1009400088EE880E83E0981EA11CB11CE4CFFF90B6
:10095000EF90DF90CF90BF90AF909F908F900895D1
:100960000F931F93CF93DF93EC01888199810097B8
:1009700059F02A813B812617370730F081E0DF915B
:10098000CF911F910F9108958B016F5F7F4F0E9450
:100990003910009759F0998388831B830A832C812F
:1009A0003D81232B59F7FC011082E8CF80E0E7CF8F
:1009B000CF93DF93EC0188819981009711F00E9419
:1009C000B00F198218821D821C821B821A82DF914D
:1009D000CF910895CF93DF93EC01198218821B8287
:1009E0001A821D821C826CE170E00E94B0048111A9
:1009F00005C0CE01DF91CF910C94D8048CE190E03A
:100A00009D838C8360E271E088819981DF91CF9131
:100A10000C94FF10CF92DF92EF92FF920F931F93EF
:100A2000CF93DF93CDB7DEB7A1970FB6F894DEBFB3
:100A30000FBECDBF7C01CB01BA01F701118210823C
:100A400013821282158214828E010F5F1F4F22E0E3
:100A500044E00E94C8086C01009771F0FC0101900D
:100A60000020E9F731978F01081B190BB801C70166
:100A70000E94B004811112C0C7010E94D804A1963F
:100A80000FB6F894DEBF0FBECDBFDF91CF911F919F
:100A90000F91FF90EF90DF90CF900895F7011583AD
:100AA0000483B601808191810E94FF10E8CFEF920C
:100AB000FF920F931F93CF93DF93EC01FB01E08034
:100AC000F180E114F10411F1048115810115110582
:100AD000A9F08C819D81080F191FB801CE010E94D9
:100AE000B004882399F0288139818C819D81B701D8
:100AF000820F931F0E94FF101D830C83CE01DF9194
:100B0000CF911F910F91FF90EF900895CE010E9419
:100B1000D804F4CFFC0180819181009711F00C94EE
:100B2000B00F08951F920F920FB60F9211242F93BA
:100B30003F934F935F936F937F938F939F93AF9365
:100B4000BF93EF93FF938091EB019091EC01A09103
:100B5000ED01B091EE01892B8A2B8B2BD1F1909175
:100B6000E601E091E701F091E80180818927808327
:100B70008091EB019091EC01A091ED01B091EE011B
:100B8000181619061A061B069CF48091EB01909129
:100B9000EC01A091ED01B091EE010197A109B1091D
:100BA0008093EB019093EC01A093ED01B093EE01E3
:100BB000FF91EF91BF91AF919F918F917F916F9135
:100BC0005F914F913F912F910F900FBE0F901F900B
:100BD000189580910401EEE3F2E0E4919FEF909389
:100BE0000401E13051F030F0E23069F060E00E9441
:100BF000BE02DECF10926E00F9CF90916F009D7F04
:100C000090936F00F3CF909170009D7F9093700050
:100C100091E09093B0009091B100987F9460909390
:100C2000B1001092B300E2CF1F920F920FB60F9255
:100C300011242F933F934F935F936F937F938F93E1
:100C40009F93AF93BF93EF93FF9389E491E00E944A
:100C5000E201FF91EF91BF91AF919F918F917F91B1
:100C60006F915F914F913F912F910F900FBE0F9019
:100C70001F9018951F920F920FB60F9211242F9369
:100C80008F939F93EF93FF93E0915901F0915A0155
:100C90008081E0915F01F091600182FD1BC0908135
:100CA000809162018F5F8F7320916301821741F001
:100CB000E0916201F0E0E75BFE4F958F8093620167
:100CC000FF91EF919F918F912F910F900FBE0F90F9
:100CD0001F9018958081F4CF1F920F920FB60F923C
:100CE00011242F933F938F939F93AF93BF93809142
:100CF0003F0190914001A0914101B091420130919A
:100D00003E0123E0230F2D3758F50196A11DB11D9B
:100D100020933E0180933F0190934001A0934101B5
:100D2000B09342018091430190914401A09145010B
:100D3000B09146010196A11DB11D8093430190938E
:100D40004401A0934501B0934601BF91AF919F919B
:100D50008F913F912F910F900FBE0F901F9018957C
:100D600026E8230F0296A11DB11DD2CFCF93DF93AA
:100D7000CDB7DEB72C970FB6F894DEBF0FBECDBF50
:100D8000789484B5826084BD84B5816084BD85B566
:100D9000826085BD85B5816085BD80916E00816072
:100DA00080936E0010928100809181008260809318
:100DB000810080918100816080938100809180001A
:100DC0008160809380008091B10084608093B10045
:100DD0008091B00081608093B00080917A0084603F
:100DE00080937A0080917A00826080937A0080916B
:100DF0007A00816080937A0080917A008068809385
:100E00007A001092C100E0915901F0915A0182E0FC
:100E10008083E0915501F09156011082E0915701D5
:100E2000F09158018FEC808310926101E0915D0197
:100E3000F0915E0186E08083E0915B01F0915C01BE
:100E4000808180618083E0915B01F0915C01808111
:100E500088608083E0915B01F0915C018081806813
:100E60008083E0915B01F0915C0180818F7D8083C4
:100E700062E082E00E94EC0261E083E00E94EC020A
:100E800061E084E00E94EC0261E085E00E94EC02F7
:100E900061E086E00E94EC0261E087E00E94EC02E3
:100EA00061E089E00E94EC0261E08AE00E94EC02CD
:100EB00061E08BE00E94EC0261E08CE00E94EC02B9
:100EC00061E08DE00E94EC0244EF51E060E070E0F0
:100ED00088EC90E00E941D036AEF70E080E090E0F3
:100EE0000E947D0444E650E060E070E080E991E01B
:100EF0000E941D0303E010E040E0E42E40E0F42EE9
:100F00005DE0C52ED12C1093030100930201809166
:100F10000201909103018E3091050CF07AC0883067
:100F2000910571F460E088E00E94BE0280910201A8
:100F30009091030101969093030180930201E7CF02
:100F400061E00E94BE020E949A02892B09F053C000
:100F500064E670E080E090E00E947D040E949A02C6
:100F6000019789F7A0904701B09048018FEFA81A28
:100F7000B80AB0924801A092470144E650E060E010
:100F800070E080E991E00E941D03B501BB0C880B65
:100F9000990B0E941F0B9B01AC0160E070E080E0A8
:100FA00090E40E94690CAB01BC01CE0101960E9445
:100FB0000A05CE0107960E94EA04BE016F5F7F4FCB
:100FC000CE0107960E9457050E947801CE01079630
:100FD0000E948A05CE0101960E948A058091000137
:100FE0009091010197FD0196959587959093010148
:100FF00080930001A8CF6091000170910101072E3C
:10100000000C880B990B0E947D0460E08091020126
:101010008BCFD0920301C092020180910201909186
:101020000301833091050CF47AC08830910571F486
:1010300060E088E00E94BE0280910201909103016D
:1010400001979093030180930201E7CF61E00E9432
:10105000BE020E949A02892B09F053C064E670E038
:1010600080E090E00E947D040E949A02019789F737
:10107000A0904701B09048018FEFA81AB80AB0922B
:101080004801A092470144E650E060E070E080E94A
:1010900091E00E941D03B501BB0C880B990B0E94C7
:1010A0001F0B9B01AC0160E070E080E090E40E94C7
:1010B000690CAB01BC01CE0101960E940A05CE016C
:1010C00007960E94EA04BE016F5F7F4FCE0107962C
:1010D0000E9457050E947801CE0107960E948A055A
:1010E000CE0101960E948A05809100019091010134
:1010F00097FD019695958795909301018093000146
:10110000A8CF6091000170910101072E000C880B9F
:10111000990B0E947D0460E0809102018BCFE11465
:10112000F10409F4F0CE0E94CE01882309F4EBCE3D
:101130000E940000E8CEE9E4F1E01382128288EE1A
:1011400093E0A0E0B0E084839583A683B7838FE02B
:1011500091E09183808385EC90E09587848784EC8F
:1011600090E09787868780EC90E0918B808B81EC74
:1011700090E0938B828B82EC90E0958B848B86EC55
:1011800090E0978B868B118E128E138E148E08959D
:10119000EF920F931F93CF93DF93E80134E047FD65
:1011A00034E1042E000C550B57FF03C051954195B7
:1011B0005109E32E022F242FAE010E94E608CE0132
:1011C000DF91CF911F910F91EF900895A9E0B0E0CA
:1011D000ECEEF8E00C94290C6A01F22EB02E102FE0
:1011E000FBE3AF2EA01608F41BE31F5F012F27E0DF
:1011F000AE014F5F5F4F0E94450ABC018981982F65
:101200009970913009F43FC09BE2E1FC04C09E2D2F
:101210009170E0FC3AC05E2D5071E82FE87083FFBA
:1012200046C084E0911101C083E0EF2DE81B8F15CB
:1012300008F0E0E0D6018E2F20E2552351F19923EA
:1012400029F0D6019C93C60101966C0196012D5F91
:101250003F4FE2FE24C08EE4D6018C9391E41196B8
:101260009C93119712968C93D9018E2F90E2811145
:101270001BC0E20FF32FF11D10828EEF9FEF299616
:10128000ECE00C94450C9DE2C6CF90E2C4CF2D93C8
:1012900081508111FCCFCE0ED11CE0E0D0CF8EE684
:1012A000D6018C9391E6DBCF9D938150E0CF482F00
:1012B000447082FF3DC084E0911101C083E08F152E
:1012C00010F4EF2DE81BD6018E2F20E2552309F1F3
:1012D000992329F0D6019C93C60101966C019601D1
:1012E0002D5F3F4FE2FE1BC089E4D6018C938EE454
:1012F00011968C93119786E412968C93D9018E2FB8
:1013000090E2882309F4B5CF9D938150FACF2D93B5
:1013100081508111FCCFCE0ED11CE0E0D9CF89E6FF
:10132000D6018C938EE611968C93119786E6E4CFC6
:101330009B0177FF02C030E020E0A1E0B0E0911116
:1013400002C0B0E0A0E0F9013196AE0FBF1F8B2CB8
:10135000912CBB2009F461C05401EFEFAE1ABE0A14
:10136000AA0DBB1DFA161B0619F014F04F2D4A1BCF
:10137000511188C0E3FC59C07601A42FB0E2A1113D
:101380004FC0C40ED11C992309F45BC040E0D601C4
:101390001196F60190836D01552309F448C0012F81
:1013A000060F9A81582F507184FF03C0913309F4BE
:1013B000015010160CF047C0093008F008E0EEE2CA
:1013C000FE2E5B01A01AB1088501919481949108C9
:1013D0002F3F320729F4D601FC92F60131966F01B6
:1013E0006217730794F1021713077CF5DB01A21B48
:1013F000B30BAA24A394B12CAC0EBD1EAA0DBB1D29
:1014000011968C9121503109D60111962815390574
:10141000F4F0F60180836D01DBCFB12CA12CA0CFBD
:10142000F701B1937F01A150AACF9111B0CFD6019E
:10143000942F50E302C05D9391509111FCCFC40EE4
:10144000D11C40E0ACCF01E0BACF80E3DBCF621724
:10145000730731F4963388F4953311F4552369F00A
:10146000F6018083FD01842F90E2811108C0A40F52
:10147000B11D1C9290E080E002CF81E3F1CF919307
:101480008150F3CF911183CF8ACF283008F027E025
:101490003327DA01990F311D87FD916000966105B0
:1014A000710539F432602E5F3D9330E32A95E1F700
:1014B00008959F3F30F080387105610509F03C5F69
:1014C0003C5F3D93913008F08068911DDF93CF938E
:1014D0001F930F93FF92EF92192F987F9695E92F04
:1014E00096959695E90FFF27EC5BFE4F99273327DA
:1014F000EE24FF24A701E70105900894079428F43F
:10150000360FE71EF81E491F511D660F771F881FF3
:10151000991F0694A1F70590079428F4E70EF81E8A
:10152000491F561FC11D770F881F991F661F0694FC
:10153000A1F70590079428F4F80E491F561FC71FFE
:10154000D11D880F991F661F771F0694A1F705907C
:10155000079420F4490F561FC71FD81F990F661F05
:10156000771F881F0694A9F784911095177041F092
:10157000D695C79557954795F794E7941A95C1F76F
:10158000EAEEF0E06894159015913591659195918A
:1015900005907FE27395E118F10A430B560BC90BD6
:1015A000D009C0F7E10CF11E431F561FC91FD01D03
:1015B0007EF4703311F48A95E6CFE894015030F050
:1015C000080F0AF40027021708F4202F2395022F92
:1015D0007A3328F079E37D932A95E9F710C07D935B
:1015E0002A9589F6069497956795379517951794D8
:1015F000E118F10A430B560BC90BD00998F023955B
:101600007E9173957A3308F070E37C932013B8F7DA
:101610007E9170617D9330F0839571E37D9370E3EB
:101620002A95E1F71124EF90FF900F911F91CF9130
:10163000DF91992787FD90950895E89409C097FB5D
:101640003EF490958095709561957F4F8F4F9F4F99
:101650009923A9F0F92F96E9BB279395F6958795DD
:1016600077956795B795F111F8CFFAF4BB0F11F4A0
:1016700060FF1BC06F5F7F4F8F4F9F4F16C0882347
:1016800011F096E911C0772321F09EE8872F762F7D
:1016900005C0662371F096E8862F70E060E02AF0BE
:1016A0009A95660F771F881FDAF7880F96958795AA
:1016B00097F908950E946D0B0C94DE0B0E94D00BDD
:1016C00038F00E94D70B20F0952311F00C94C70B33
:1016D0000C94CD0B11240C94120C0E94EF0B70F3A0
:1016E000959FC1F3950F50E0551F629FF001729FC7
:1016F000BB27F00DB11D639FAA27F00DB11DAA1FD6
:10170000649F6627B00DA11D661F829F2227B00D22
:10171000A11D621F739FB00DA11D621F839FA00DAD
:10172000611D221F749F3327A00D611D231F849FFD
:10173000600D211D822F762F6A2F11249F57504054
:101740009AF0F1F088234AF0EE0FFF1FBB1F661FCF
:10175000771F881F91505040A9F79E3F510580F098
:101760000C94C70B0C94120C5F3FE4F3983ED4F337
:10177000869577956795B795F795E7959F5FC1F73C
:10178000FE2B880F911D9695879597F9089597F9E7
:101790009F6780E870E060E008959FEF80EC089517
:1017A00000240A9416161706180609060895002440
:1017B0000A9412161306140605060895092E0394BA
:1017C000000C11F4882352F0BB0F40F4BF2B11F42E
:1017D00060FF04C06F5F7F4F8F4F9F4F089557FD8D
:1017E0009058440F551F59F05F3F71F04795880F8F
:1017F00097FB991F61F09F3F79F087950895121626
:1018000013061406551FF2CF4695F1DF08C01616D1
:1018100017061806991FF1CF869571056105089482
:101820000895E894BB2766277727CB0197F9089599
:101830000E945A0CA59F900DB49F900DA49F800DFF
:10184000911D112408952F923F924F925F926F92B3
:101850007F928F929F92AF92BF92CF92DF92EF9240
:10186000FF920F931F93CF93DF93CDB7DEB7CA1BC1
:10187000DB0B0FB6F894DEBF0FBECDBF09942A88EC
:10188000398848885F846E847D848C849B84AA8494
:10189000B984C884DF80EE80FD800C811B81AA8121
:1018A000B981CE0FD11D0FB6F894DEBF0FBECDBFEC
:1018B000ED010895A29FB001B39FC001A39F700DD9
:1018C000811D1124911DB29F700D811D1124911D48
:1018D0000895FA01EE0FFF1F309621053105A1F1A1
:1018E0006115710561F48038BFE39B0749F1689485
:1018F0009038810561F08038BFEF9B0741F0992354
:101900004AF5FF3FE1053105210519F1E8940894F6
:10191000E795D901AA2329F4AB2FBE2FF85FD0F3A6
:1019200010C0FF5F70F4A695E0F7F73950F019F09A
:10193000FF3A38F49F779F930DD00F9007FC905893
:10194000089546F00C94CD0B60E070E080E89FE3D2
:1019500008954FE79F775F934F933F932F930E9494
:10196000640D2F913F914F915F910E945A0B0C94FF
:10197000C10C29F416F00C94C70B0C94110C0C94A8
:10198000CD0B0E94F70BA8F39638A0F707F80F923B
:10199000E8942BE33AEA48EB5FE70E94700B0F9262
:1019A0000F920F924DB75EB70F920E94AC0DE8E612
:1019B000F0E00E94F30C4F915F91EF91FF91E5955C
:1019C000EE1FFF1F49F0FE57E0684427EE0F441F4B
:1019D000FA95E1F74195550B0E94260D0F9007FEF1
:1019E0000C941A0D0895DF93CF931F930F93FF92DA
:1019F000EF92DF927B018C01689406C0DA2EEF0132
:101A00000E946D0BFE01E894A591259135914591B9
:101A10005591A6F3EF010E94F80DFE019701A80170
:101A2000DA9469F7DF90EF90FF900F911F91CF91BB
:101A3000DF9108959B01AC0160E070E080E89FE3D6
:101A40000C944D0E0C94C70B0C94BF0E0E94F70B18
:101A5000D8F39923C9F3940F511DA3F3915050402B
:101A600094F059F0882332F0660F771F881F915049
:101A70005040C1F79E3F51052CF7880F911D969558
:101A8000879597F908955F3FACF0983E9CF0BB278F
:101A9000869577956795B79508F4B1609395C1F7EA
:101AA000BB0F58F711F460FFE8CF6F5F7F4F8F4F88
:101AB0009F4FE3CF0C94120C16F00C94BF0E0C94B5
:101AC000CD0B68940C94C70B0E94F70BA8F39923D5
:101AD000C1F3AEF3DF93CF931F930F93FF92C92F00
:101AE000DD2788232AF02197660F771F881FDAF7F2
:101AF00020E030E040E85FEB9FE3883920F0803E53
:101B000038F021968F770E94E10DE0E9F0E004C003
:101B10000E94E10DEDEBF0E00E94F30C8B01BE01A1
:101B2000EC01FB2E6F5771097595771F880B990B88
:101B30000E941F0B28E132E741E35FE30E946D0B37
:101B4000AF2D9801AE01FF900F911F91CF91DF91C2
:101B50000E94F80D0C94DE0BFA01DC01AA0FBB1FEA
:101B60009B01AC01BF5728F4222733274427507824
:101B700020C0B75190F4AB2F002446953795279598
:101B8000011CA395D2F3002071F0220F331F441FD4
:101B9000B395DAF30ED00C94E00D61307105A0E836
:101BA0008A07B94630F49B01AC016627772788275E
:101BB0009078309621F020833183428353830895B7
:101BC0005058BB27AA270E94F80D0C94DE0B0E94E8
:101BD000D00B38F00E94D70B20F039F49F3F19F456
:101BE00026F40C94CD0B0EF4E095E7FB0C94C70B98
:101BF000E92F0E94EF0B58F3BA17620773078407A7
:101C0000950720F079F4A6F50C94110C0EF4E095EC
:101C10000B2EBA2FA02D0B01B90190010C01CA01A6
:101C2000A0011124FF27591B99F0593F50F4503E51
:101C300068F11A16F040A22F232F342F4427585F43
:101C4000F3CF469537952795A795F0405395C9F75B
:101C50007EF41F16BA0B620B730B840BBAF0915013
:101C6000A1F0FF0FBB1F661F771F881FC2F70EC0B2
:101C7000BA0F621F731F841F48F487957795679585
:101C8000B795F7959E3F08F0B0CF9395880F08F071
:101C90009927EE0F9795879508950E94610E0C94F1
:101CA000DE0B0E94D70B58F00E94D00B40F029F4B5
:101CB0005F3F29F00C94C70B51110C94120C0C943B
:101CC000CD0B0E94EF0B68F39923B1F3552391F3E9
:101CD000951B550BBB27AA2762177307840738F09B
:101CE0009F5F5F4F220F331F441FAA1FA9F335D0F8
:101CF0000E2E3AF0E0E832D091505040E695001CAC
:101D0000CAF72BD0FE2F29D0660F771F881FBB1F65
:101D1000261737074807AB07B0E809F0BB0B802D43
:101D2000BF01FF2793585F4F3AF09E3F510578F06F
:101D30000C94C70B0C94120C5F3FE4F3983ED4F361
:101D4000869577956795B795F7959F5FC9F7880F43
:101D5000911D9695879597F90895E1E0660F771F95
:101D6000881FBB1F621773078407BA0720F0621B26
:101D7000730B840BBA0BEE1F88F7E09508959F3F15
:101D800031F0915020F4879577956795B795880F36
:101D9000911D9695879597F90895A1E21A2EAA1B91
:101DA000BB1BFD010DC0AA1FBB1FEE1FFF1FA2170B
:101DB000B307E407F50720F0A21BB30BE40BF50B08
:101DC000661F771F881F991F1A9469F76095709591
:101DD000809590959B01AC01BD01CF010895052E22
:101DE00097FB1EF400940E94060F57FD07D00E9437
:101DF000CD0E07FC03D04EF40C94060F5095409581
:101E0000309521953F4F4F4F5F4F089590958095A6
:101E1000709561957F4F8F4F9F4F0895EE0FFF1F75
:101E20000590F491E02D09940F931F93CF93DF93C6
:101E30008230910510F482E090E0E091F901F09198
:101E4000FA0130E020E0B0E0A0E0309799F42115ED
:101E5000310509F44AC0281B390B24303105D8F567
:101E60008A819B816115710589F1FB0193838283CE
:101E7000FE0111C040815181028113814817590729
:101E8000E0F04817590799F4109761F012960C93F7
:101E9000129713961C933296CF01DF91CF911F9129
:101EA0000F9108950093F9011093FA01F4CF2115D1
:101EB000310551F04217530738F0A901DB019A01AF
:101EC000BD01DF01F801C1CFEF01F9CF9093FA0115
:101ED0008093F901CDCFFE01E20FF31F819391931F
:101EE0002250310939832883D7CF2091F7013091CF
:101EF000F801232B41F42091070130910801309320
:101F0000F8012093F7012091050130910601211578
:101F1000310541F42DB73EB74091090150910A01B6
:101F2000241B350BE091F701F091F801E217F3075C
:101F3000A0F42E1B3F0B2817390778F0AC014E5F39
:101F40005F4F2417350748F04E0F5F1F5093F8017D
:101F50004093F701819391939FCFF0E0E0E09CCF15
:101F6000CF93DF930097E9F0FC013297138212823E
:101F7000A091F901B091FA01ED0130E020E0109755
:101F8000A1F420813181820F931F2091F7013091BC
:101F9000F8012817390709F061C0F093F801E093C0
:101FA000F701DF91CF910895EA01CE17DF07E8F539
:101FB0004A815B819E0141155105B1F7E901FB831F
:101FC000EA8349915991C40FD51FEC17FD0761F4BD
:101FD000808191810296840F951FE90199838883FE
:101FE000828193819B838A83F0E0E0E012968D9159
:101FF0009C9113970097B9F52D913C911197CD01C4
:102000000296820F931F2091F7013091F801281753
:10201000390739F6309751F51092FA011092F9010B
:10202000B093F801A093F701BCCFD383C283408162
:102030005181840F951FC817D90761F44E5F5F4F18
:1020400088819981480F591F518340838A819B81E0
:10205000938382832115310509F0B0CFF093FA0103
:10206000E093F9019ECFFD01DC01C0CF1382128203
:10207000D7CFB0E0A0E0EFE3F0E10C94250C8C01A9
:10208000009751F4CB010E94140F8C01C801CDB709
:10209000DEB7E0E10C94410CFC01E60FF71F9C0158
:1020A00022503109E217F30708F49DC0D901CD9100
:1020B000DC911197C617D70798F0C530D10530F3DA
:1020C000CE0104978617970708F3C61BD70B2297F4
:1020D000C193D1936D937C93CF010E94B00FD6CF63
:1020E0005B01AC1ABD0A4C018C0E9D1EA091F9013A
:1020F000B091FA01512C412CF12CE12C109731F5C3
:102100008091F7019091F8018815990509F05CC05C
:102110004616570608F058C08091050190910601B7
:10212000009741F48DB79EB74091090150910A0183
:10213000841B950BE817F90708F055C0F093F801D8
:10214000E093F701F90171836083A0CF8D919C9199
:10215000119712966C90129713967C901397A8156E
:10216000B90559F56C0142E0C40ED11CCA14DB0458
:1021700020F1AC014A195B09DA011296159780F03B
:102180006282738251834083D9016D937C93E11401
:10219000F10471F0D7011396FC93EE93129776CF6A
:1021A00022968C0F9D1FF90191838083F301EFCF5D
:1021B000F093FA01E093F90169CF4816590608F443
:1021C0002C017D01D3019ACFCB010E94140F7C0119
:1021D000009749F0AE01B8010E94F610C8010E94B4
:1021E000B00F870153CF10E000E050CFFB01DC01BE
:1021F00002C001900D9241505040D8F70895FB0164
:10220000DC0101900D920020E1F70895F894FFCFD2
:1022100064000300FF0000FB0180000000000004D8
:10222000024B0191015102C201A001B4010D0A004B
:10223000466173746572205820322043757272654E
:0E2240006E74205370656564203A20580000CB
:00000001FF
