:100000000C945D000C9485000C9485000C94850084
:100010000C9485000C9485000C9485000C9485004C
:100020000C9485000C9485000C9485000C9485003C
:100030000C9485000C9485000C9485000C9485002C
:100040000C94C3020C9485000C9491020C946B02E6
:100050000C9485000C9485000C9485000C9485000C
:100060000C9485000C9485000000000024002700FB
:100070002A0000000000250028002B0004040404CE
:100080000404040402020202020203030303030342
:10009000010204081020408001020408102001021F
:1000A00004081020000000080002010000030407FB
:1000B0000000000000000000900411241FBECFEFDC
:1000C000D8E0DEBFCDBF11E0A0E0B1E0EAE8F9E0A2
:1000D00002C005900D92A231B107D9F721E0A2E14B
:1000E000B1E001C01D92A83BB207E1F710E0CDE5F9
:1000F000D0E004C02197FE010E94BD04CC35D10799
:10010000C9F70E940D030C94C3040C940000AF9235
:10011000BF92CF92DF92EF92FF920F931F93CF93F4
:10012000DF936C017B018B01040F151FEB015E0156
:10013000AE18BF08C017D10759F06991D601ED91EB
:10014000FC910190F081E02DC6010995892B79F78A
:10015000C501DF91CF911F910F91FF90EF90DF903C
:10016000CF90BF90AF900895FC01538D448D252F03
:1001700030E0842F90E0821B930B541710F0CF9641
:10018000089501970895FC01918D828D981761F073
:10019000A28DAE0FBF2FB11D5D968C91928D9F5F8A
:1001A0009F73928F90E008958FEF9FEF0895FC0169
:1001B000918D828D981731F0828DE80FF11D858D1C
:1001C00090E008958FEF9FEF0895FC01918D228DAF
:1001D000892F90E0805C9F4F821B91098F73992734
:1001E00008958BE191E00E94E50021E0892B09F45C
:1001F00020E0822F089580E090E0892B29F00E9472
:10020000F10081110C9400000895FC01A48DA80F49
:10021000B92FB11DA35ABF4F2C91848D90E0019648
:100220008F739927848FA689B7892C93A089B18968
:100230008C91837080648C93938D848D981306C009
:100240000288F389E02D80818F7D80830895EF926D
:10025000FF920F931F93CF93DF93EC0181E0888F80
:100260009B8D8C8D98131AC0E889F989808185FF50
:1002700015C09FB7F894EE89FF896083E889F989F2
:1002800080818370806480839FBF81E090E0DF91F4
:10029000CF911F910F91FF90EF900895F62E0B8D47
:1002A00010E00F5F1F4F0F731127E02E8C8D8E1102
:1002B0000CC00FB607FCFACFE889F989808185FF69
:1002C000F5CFCE010E940501F1CFEB8DEC0FFD2F94
:1002D000F11DE35AFF4FF0829FB7F8940B8FEA8924
:1002E000FB8980818062CFCFCF93DF93EC01888D33
:1002F0008823B9F0AA89BB89E889F9898C9185FDA1
:1003000003C0808186FD0DC00FB607FCF7CF8C912E
:1003100085FFF2CF808185FFEDCFCE010E940501E0
:10032000E9CFDF91CF91089590E0FC01EC55FF4FAC
:100330002491FC01E057FF4F3491FC01E458FF4F3A
:10034000E491EE23C9F0222339F0233001F1A8F41F
:10035000213019F1223029F1F0E0EE0FFF1FEE58A5
:10036000FF4FA591B4918FB7F894EC91611126C01D
:1003700030953E233C938FBF08952730A9F0283055
:10038000C9F0243049F7809180008F7D03C08091AF
:1003900080008F7780938000DFCF84B58F7784BD16
:1003A000DBCF84B58F7DFBCF8091B0008F778093BA
:1003B000B000D2CF8091B0008F7DF9CF3E2BDACF45
:1003C000CF93DF9390E0FC01E057FF4F24918458D6
:1003D0009F4FFC0184918823D1F090E0880F991FF2
:1003E000FC01E859FF4FA591B491FC01EE58FF4F75
:1003F000C591D491623071F49FB7F8943C91822FEB
:10040000809583238C93E8812E2B28839FBFDF91D7
:10041000CF9108958FB7F894EC912E2B2C938FBF2A
:10042000F6CF3FB7F8948091170190911801A091F1
:100430001901B0911A0126B5A89B05C02F3F19F0EC
:100440000196A11DB11D3FBFBA2FA92F982F882754
:10045000BC01CD01620F711D811D911D42E0660F2F
:10046000771F881F991F4A95D1F708958F929F9201
:10047000AF92BF92CF92DF92EF92FF920E94110251
:100480004B015C0184E6C82ED12CE12CF12C0E949A
:100490001102681979098A099B09683E7340810530
:1004A0009105A8F321E0C21AD108E108F10888EE0D
:1004B000880E83E0981EA11CB11CC114D104E10474
:1004C000F10429F7FF90EF90DF90CF90BF90AF90AD
:1004D0009F908F9008951F920F920FB60F92112444
:1004E0002F933F934F935F936F937F938F939F933C
:1004F000AF93BF93EF93FF938BE191E00E940501CF
:10050000FF91EF91BF91AF919F918F917F916F91EB
:100510005F914F913F912F910F900FBE0F901F90C1
:1005200018951F920F920FB60F9211242F938F934D
:100530009F93EF93FF93E0912B01F0912C01808129
:10054000E0913101F091320182FD1BC090818091D8
:1005500034018F5F8F7320913501821741F0E09154
:100560003401F0E0E55EFE4F958F80933401FF91FA
:10057000EF919F918F912F910F900FBE0F901F9031
:1005800018958081F4CF1F920F920FB60F9211240D
:100590002F933F938F939F93AF93BF9380911301BA
:1005A00090911401A0911501B091160130911201A2
:1005B00023E0230F2D3758F50196A11DB11D20937F
:1005C00012018093130190931401A0931501B0932D
:1005D00016018091170190911801A0911901B09115
:1005E0001A010196A11DB11D809317019093180166
:1005F000A0931901B0931A01BF91AF919F918F9170
:100600003F912F910F900FBE0F901F90189526E8E5
:10061000230F0296A11DB11DD2CF789484B58260BC
:1006200084BD84B5816084BD85B5826085BD85B596
:10063000816085BD80916E00816080936E00109214
:10064000810080918100826080938100809181008F
:100650008160809381008091800081608093800020
:100660008091B10084608093B1008091B00081607E
:100670008093B00080917A00846080937A008091AA
:100680007A00826080937A0080917A008160809302
:100690007A0080917A00806880937A001092C1007D
:1006A000E0912B01F0912C0182E08083E091270101
:1006B000F09128011082E0912901F0912A018FEC3C
:1006C000808310923301E0912F01F091300186E098
:1006D0008083E0912D01F0912E01808180618083E3
:1006E000E0912D01F0912E01808188608083E0915E
:1006F0002D01F0912E01808180688083E0912D0191
:10070000F0912E0180818F7D808362E082E00E94E3
:10071000E00161E083E00E94E00161E084E00E948A
:10072000E00161E085E00E94E00161E086E00E9476
:10073000E00161E087E00E94E00161E089E00E9461
:10074000E00161E08AE00E94E00161E08BE00E944C
:10075000E00161E08CE00E94E00161E08DE00E9438
:10076000E001C0E0D0E061E082E00E9494010E94DC
:10077000360260E082E00E94940161E083E00E9422
:1007800094010E94360260E083E00E94940161E0DF
:1007900084E00E9494010E94360260E084E00E949E
:1007A000940161E085E00E9494010E94360260E0BD
:1007B00085E00E94940161E086E00E9494010E941D
:1007C000360260E086E00E94940161E087E00E94CA
:1007D00094010E94360260E087E00E94940161E08B
:1007E00089E00E9494010E94360260E089E00E9444
:1007F000940161E08AE00E9494010E94360260E068
:100800008AE00E94940161E08BE00E9494010E94C2
:10081000360260E08BE00E94940161E08CE00E946F
:1008200094010E94360260E08CE00E94940161E035
:100830008DE00E9494010E94360260E08DE00E94EB
:10084000940161E08CE00E9494010E94360260E015
:100850008CE00E94940161E08BE00E9494010E9470
:10086000360260E08BE00E94940161E08AE00E9421
:1008700094010E94360260E08AE00E94940161E0E7
:1008800089E00E9494010E94360260E089E00E94A3
:10089000940161E087E00E9494010E94360260E0CA
:1008A00087E00E94940161E086E00E9494010E942A
:1008B000360260E086E00E94940161E085E00E94DB
:1008C00094010E94360260E085E00E94940161E09C
:1008D00084E00E9494010E94360260E084E00E945D
:1008E000940161E083E00E9494010E94360260E07E
:1008F00083E00E94940161E082E00E9494010E94E2
:10090000360260E082E00E949401209709F42BCF28
:100910000E94F100882309F426CF0E94000023CF13
:10092000EBE1F1E01382128288EE93E0A0E0B0E008
:1009300084839583A683B78384E091E09183808349
:1009400085EC90E09587848784EC90E09787868794
:1009500080EC90E0918B808B81EC90E0938B828B8C
:1009600082EC90E0958B848B86EC90E0978B868B65
:10097000118E128E138E148E0895EE0FFF1F0590A8
:0A098000F491E02D0994F894FFCFE4
:10098A000000000027018700B4007401E500C300DD
:02099A00D70084
:00000001FF
